{
  "_format": "hh-sol-artifact-1",
  "contractName": "VotingSystem",
  "sourceName": "contracts/VotingSystem.sol",
  "abi": [
    {
      "inputs": [],
      "stateMutability": "nonpayable",
      "type": "constructor"
    },
    {
      "anonymous": false,
      "inputs": [
        {
          "indexed": true,
          "internalType": "uint256",
          "name": "proposalId",
          "type": "uint256"
        },
        {
          "indexed": false,
          "internalType": "string",
          "name": "title",
          "type": "string"
        },
        {
          "indexed": false,
          "internalType": "string",
          "name": "description",
          "type": "string"
        },
        {
          "indexed": false,
          "internalType": "uint256",
          "name": "startTime",
          "type": "uint256"
        },
        {
          "indexed": false,
          "internalType": "uint256",
          "name": "endTime",
          "type": "uint256"
        }
      ],
      "name": "ProposalCreated",
      "type": "event"
    },
    {
      "anonymous": false,
      "inputs": [
        {
          "indexed": true,
          "internalType": "uint256",
          "name": "proposalId",
          "type": "uint256"
        },
        {
          "indexed": true,
          "internalType": "address",
          "name": "voter",
          "type": "address"
        },
        {
          "indexed": false,
          "internalType": "bool",
          "name": "choice",
          "type": "bool"
        },
        {
          "indexed": false,
          "internalType": "uint256",
          "name": "timestamp",
          "type": "uint256"
        },
        {
          "indexed": false,
          "internalType": "string",
          "name": "ipfsHash",
          "type": "string"
        }
      ],
      "name": "VoteCast",
      "type": "event"
    },
    {
      "anonymous": false,
      "inputs": [
        {
          "indexed": true,
          "internalType": "address",
          "name": "voter",
          "type": "address"
        }
      ],
      "name": "VoterAuthorized",
      "type": "event"
    },
    {
      "anonymous": false,
      "inputs": [
        {
          "indexed": true,
          "internalType": "address",
          "name": "voter",
          "type": "address"
        }
      ],
      "name": "VoterRevoked",
      "type": "event"
    },
    {
      "inputs": [],
      "name": "admin",
      "outputs": [
        {
          "internalType": "address",
          "name": "",
          "type": "address"
        }
      ],
      "stateMutability": "view",
      "type": "function"
    },
    {
      "inputs": [
        {
          "internalType": "address",
          "name": "_voter",
          "type": "address"
        }
      ],
      "name": "authorizeVoter",
      "outputs": [],
      "stateMutability": "nonpayable",
      "type": "function"
    },
    {
      "inputs": [
        {
          "internalType": "address",
          "name": "",
          "type": "address"
        }
      ],
      "name": "authorizedVoters",
      "outputs": [
        {
          "internalType": "bool",
          "name": "",
          "type": "bool"
        }
      ],
      "stateMutability": "view",
      "type": "function"
    },
    {
      "inputs": [
        {
          "internalType": "uint256",
          "name": "_proposalId",
          "type": "uint256"
        }
      ],
      "name": "closeProposal",
      "outputs": [],
      "stateMutability": "nonpayable",
      "type": "function"
    },
    {
      "inputs": [
        {
          "internalType": "string",
          "name": "_title",
          "type": "string"
        },
        {
          "internalType": "string",
          "name": "_description",
          "type": "string"
        },
        {
          "internalType": "uint256",
          "name": "_durationInHours",
          "type": "uint256"
        }
      ],
      "name": "createProposal",
      "outputs": [
        {
          "internalType": "uint256",
          "name": "",
          "type": "uint256"
        }
      ],
      "stateMutability": "nonpayable",
      "type": "function"
    },
    {
      "inputs": [],
      "name": "getAllProposals",
      "outputs": [
        {
          "internalType": "uint256[]",
          "name": "",
          "type": "uint256[]"
        }
      ],
      "stateMutability": "view",
      "type": "function"
    },
    {
      "inputs": [
        {
          "internalType": "uint256",
          "name": "_proposalId",
          "type": "uint256"
        }
      ],
      "name": "getProposal",
      "outputs": [
        {
          "internalType": "uint256",
          "name": "id",
          "type": "uint256"
        },
        {
          "internalType": "string",
          "name": "title",
          "type": "string"
        },
        {
          "internalType": "string",
          "name": "description",
          "type": "string"
        },
        {
          "internalType": "uint256",
          "name": "yesVotes",
          "type": "uint256"
        },
        {
          "internalType": "uint256",
          "name": "noVotes",
          "type": "uint256"
        },
        {
          "internalType": "uint256",
          "name": "startTime",
          "type": "uint256"
        },
        {
          "internalType": "uint256",
          "name": "endTime",
          "type": "uint256"
        },
        {
          "internalType": "bool",
          "name": "active",
          "type": "bool"
        }
      ],
      "stateMutability": "view",
      "type": "function"
    },
    {
      "inputs": [
        {
          "internalType": "uint256",
          "name": "_proposalId",
          "type": "uint256"
        }
      ],
      "name": "getProposalVotes",
      "outputs": [
        {
          "components": [
            {
              "internalType": "uint256",
              "name": "proposalId",
              "type": "uint256"
            },
            {
              "internalType": "address",
              "name": "voter",
              "type": "address"
            },
            {
              "internalType": "bool",
              "name": "choice",
              "type": "bool"
            },
            {
              "internalType": "uint256",
              "name": "timestamp",
              "type": "uint256"
            },
            {
              "internalType": "string",
              "name": "ipfsHash",
              "type": "string"
            }
          ],
          "internalType": "struct VotingSystem.Vote[]",
          "name": "",
          "type": "tuple[]"
        }
      ],
      "stateMutability": "view",
      "type": "function"
    },
    {
      "inputs": [
        {
          "internalType": "uint256",
          "name": "_proposalId",
          "type": "uint256"
        },
        {
          "internalType": "address",
          "name": "_voter",
          "type": "address"
        }
      ],
      "name": "getVoteChoice",
      "outputs": [
        {
          "internalType": "bool",
          "name": "",
          "type": "bool"
        }
      ],
      "stateMutability": "view",
      "type": "function"
    },
    {
      "inputs": [
        {
          "internalType": "address",
          "name": "_voter",
          "type": "address"
        }
      ],
      "name": "getVotingPower",
      "outputs": [
        {
          "internalType": "bool",
          "name": "",
          "type": "bool"
        }
      ],
      "stateMutability": "view",
      "type": "function"
    },
    {
      "inputs": [
        {
          "internalType": "uint256",
          "name": "_proposalId",
          "type": "uint256"
        },
        {
          "internalType": "address",
          "name": "_voter",
          "type": "address"
        }
      ],
      "name": "hasVoted",
      "outputs": [
        {
          "internalType": "bool",
          "name": "",
          "type": "bool"
        }
      ],
      "stateMutability": "view",
      "type": "function"
    },
    {
      "inputs": [],
      "name": "proposalCount",
      "outputs": [
        {
          "internalType": "uint256",
          "name": "",
          "type": "uint256"
        }
      ],
      "stateMutability": "view",
      "type": "function"
    },
    {
      "inputs": [
        {
          "internalType": "uint256",
          "name": "",
          "type": "uint256"
        },
        {
          "internalType": "uint256",
          "name": "",
          "type": "uint256"
        }
      ],
      "name": "proposalVotes",
      "outputs": [
        {
          "internalType": "uint256",
          "name": "proposalId",
          "type": "uint256"
        },
        {
          "internalType": "address",
          "name": "voter",
          "type": "address"
        },
        {
          "internalType": "bool",
          "name": "choice",
          "type": "bool"
        },
        {
          "internalType": "uint256",
          "name": "timestamp",
          "type": "uint256"
        },
        {
          "internalType": "string",
          "name": "ipfsHash",
          "type": "string"
        }
      ],
      "stateMutability": "view",
      "type": "function"
    },
    {
      "inputs": [
        {
          "internalType": "uint256",
          "name": "",
          "type": "uint256"
        }
      ],
      "name": "proposals",
      "outputs": [
        {
          "internalType": "uint256",
          "name": "id",
          "type": "uint256"
        },
        {
          "internalType": "string",
          "name": "title",
          "type": "string"
        },
        {
          "internalType": "string",
          "name": "description",
          "type": "string"
        },
        {
          "internalType": "uint256",
          "name": "yesVotes",
          "type": "uint256"
        },
        {
          "internalType": "uint256",
          "name": "noVotes",
          "type": "uint256"
        },
        {
          "internalType": "uint256",
          "name": "startTime",
          "type": "uint256"
        },
        {
          "internalType": "uint256",
          "name": "endTime",
          "type": "uint256"
        },
        {
          "internalType": "bool",
          "name": "active",
          "type": "bool"
        }
      ],
      "stateMutability": "view",
      "type": "function"
    },
    {
      "inputs": [
        {
          "internalType": "address",
          "name": "_voter",
          "type": "address"
        }
      ],
      "name": "revokeVoter",
      "outputs": [],
      "stateMutability": "nonpayable",
      "type": "function"
    },
    {
      "inputs": [
        {
          "internalType": "uint256",
          "name": "_proposalId",
          "type": "uint256"
        },
        {
          "internalType": "bool",
          "name": "_choice",
          "type": "bool"
        },
        {
          "internalType": "string",
          "name": "_ipfsHash",
          "type": "string"
        }
      ],
      "name": "vote",
      "outputs": [],
      "stateMutability": "nonpayable",
      "type": "function"
    }
  ],
  "bytecode": "0x6080604052348015600f57600080fd5b50600480546001600160a01b031916339081179091556000908152600160208190526040909120805460ff1916909117905561157b806100506000396000f3fe608060405234801561001057600080fd5b50600436106101005760003560e01c80637f318a5f11610097578063d3c0715b11610066578063d3c0715b1461026f578063da35c66414610282578063f851a4401461028b578063fd47b368146102b657600080fd5b80637f318a5f14610208578063bb4d44361461021b578063c7f758a814610247578063cceb68f51461025a57600080fd5b80632a1fac16116100d35780632a1fac161461018f57806343859632146101a257806347c66140146101c557806366acfa4a146101e557600080fd5b8063013cf08b146101055780630386a016146101355780630ce0ebf41461014a5780630d68eb9e1461016b575b600080fd5b610118610113366004610ed6565b6102c9565b60405161012c989796959493929190610f35565b60405180910390f35b610148610143366004610ed6565b61041e565b005b61015d610158366004611035565b61048f565b60405190815260200161012c565b61017e6101793660046110a8565b610590565b60405161012c9594939291906110ca565b61014861019d366004611126565b61067a565b6101b56101b0366004611148565b6106ed565b604051901515815260200161012c565b6101d86101d3366004610ed6565b61071b565b60405161012c9190611174565b6101b56101f3366004611126565b60016020526000908152604090205460ff1681565b6101b5610216366004611148565b61085d565b6101b5610229366004611126565b6001600160a01b031660009081526001602052604090205460ff1690565b610118610255366004610ed6565b6108f4565b610262610aa1565b60405161012c9190611218565b61014861027d36600461125b565b610b25565b61015d60035481565b60045461029e906001600160a01b031681565b6040516001600160a01b03909116815260200161012c565b6101486102c4366004611126565b610e5d565b600060208190529081526040902080546001820180549192916102eb906112b9565b80601f0160208091040260200160405190810160405280929190818152602001828054610317906112b9565b80156103645780601f1061033957610100808354040283529160200191610364565b820191906000526020600020905b81548152906001019060200180831161034757829003601f168201915b505050505090806002018054610379906112b9565b80601f01602080910402602001604051908101604052809291908181526020018280546103a5906112b9565b80156103f25780601f106103c7576101008083540402835291602001916103f2565b820191906000526020600020905b8154815290600101906020018083116103d557829003601f168201915b505050600384015460048501546005860154600687015460079097015495969295919450925060ff1688565b6004546001600160a01b031633146104515760405162461bcd60e51b8152600401610448906112ed565b60405180910390fd5b8060035481106104735760405162461bcd60e51b81526004016104489061132e565b506000908152602081905260409020600701805460ff19169055565b6004546000906001600160a01b031633146104bc5760405162461bcd60e51b8152600401610448906112ed565b6003546000818152602081905260409020818155600181016104de87826113b4565b50600281016104ed86826113b4565b50600060038201819055600482015542600582015561050e84610e10611489565b61051890426114a0565b600682015560078101805460ff191660011790556003805490600061053c836114b3565b9190505550817fd6b0b08c4ffc17964758389955af67e78f9c97140393526749d4994031e62ef287878460050154856006015460405161057f94939291906114cc565b60405180910390a250949350505050565b600260205281600052604060002081815481106105ac57600080fd5b600091825260209091206004909102018054600182015460028301546003840180549396506001600160a01b0383169550600160a01b90920460ff169390929091906105f7906112b9565b80601f0160208091040260200160405190810160405280929190818152602001828054610623906112b9565b80156106705780601f1061064557610100808354040283529160200191610670565b820191906000526020600020905b81548152906001019060200180831161065357829003601f168201915b5050505050905085565b6004546001600160a01b031633146106a45760405162461bcd60e51b8152600401610448906112ed565b6001600160a01b038116600081815260016020526040808220805460ff19169055517f8bd8971f91a5fea9c7ec31a7cd7a7cc467c75c932ea4bc73be16a0253d79eb879190a250565b6000828152602081815260408083206001600160a01b038516845260080190915290205460ff165b92915050565b606060026000838152602001908152602001600020805480602002602001604051908101604052809291908181526020016000905b828210156108525760008481526020908190206040805160a081018252600486029092018054835260018101546001600160a01b03811694840194909452600160a01b90930460ff16151590820152600282015460608201526003820180549192916080840191906107c1906112b9565b80601f01602080910402602001604051908101604052809291908181526020018280546107ed906112b9565b801561083a5780601f1061080f5761010080835404028352916020019161083a565b820191906000526020600020905b81548152906001019060200180831161081d57829003601f168201915b50505050508152505081526020019060010190610750565b505050509050919050565b6000828152602081815260408083206001600160a01b038516845260080190915281205460ff166108c65760405162461bcd60e51b8152602060048201526013602482015272159bdd195c881a185cc81b9bdd081d9bdd1959606a1b6044820152606401610448565b506000828152602081815260408083206001600160a01b038516845260090190915290205460ff1692915050565b600060608060008060008060008860035481106109235760405162461bcd60e51b81526004016104489061132e565b60008060008c815260200190815260200160002090508060000154816001018260020183600301548460040154856005015486600601548760070160009054906101000a900460ff16868054610978906112b9565b80601f01602080910402602001604051908101604052809291908181526020018280546109a4906112b9565b80156109f15780601f106109c6576101008083540402835291602001916109f1565b820191906000526020600020905b8154815290600101906020018083116109d457829003601f168201915b50505050509650858054610a04906112b9565b80601f0160208091040260200160405190810160405280929190818152602001828054610a30906112b9565b8015610a7d5780601f10610a5257610100808354040283529160200191610a7d565b820191906000526020600020905b815481529060010190602001808311610a6057829003601f168201915b50505050509550995099509950995099509950995099505050919395975091939597565b6060600060035467ffffffffffffffff811115610ac057610ac0610f90565b604051908082528060200260200182016040528015610ae9578160200160208202803683370190505b50905060005b600354811015610b1f5780828281518110610b0c57610b0c611505565b6020908102919091010152600101610aef565b50919050565b3360009081526001602052604090205460ff16610b7b5760405162461bcd60e51b8152602060048201526014602482015273159bdd195c881b9bdd08185d5d1a1bdc9a5e995960621b6044820152606401610448565b826003548110610b9d5760405162461bcd60e51b81526004016104489061132e565b600084815260208190526040902060070154849060ff16610bf95760405162461bcd60e51b815260206004820152601660248201527550726f706f73616c206973206e6f742061637469766560501b6044820152606401610448565b6000818152602081905260409020600501544210801590610c2b57506000818152602081905260409020600601544211155b610c865760405162461bcd60e51b815260206004820152602660248201527f566f74696e6720706572696f642068617320656e646564206f72206e6f7420736044820152651d185c9d195960d21b6064820152608401610448565b600085815260208181526040808320338452600881019092529091205460ff1615610cf35760405162461bcd60e51b815260206004820152601e60248201527f416c726561647920766f746564206f6e20746869732070726f706f73616c00006044820152606401610448565b3360009081526008820160209081526040808320805460ff199081166001179091556009850190925290912080548715801591909316179055610d4c57600381018054906000610d42836114b3565b9190505550610d64565b600481018054906000610d5e836114b3565b91905055505b6040805160a0810182528781523360208083019182528815158385019081524260608501908152608085018a815260008d815260028086529781208054600181810183559183529590912087516004909602019485559451948401805493511515600160a01b026001600160a81b03199094166001600160a01b0396909616959095179290921790935591519381019390935551909182916003820190610e0b90826113b4565b505050336001600160a01b0316877f63453ebf8e1aa432b8d77257d489f75c1a106cdbd568c0e0c63547d20fc91fa8884289604051610e4c9392919061151b565b60405180910390a350505050505050565b6004546001600160a01b03163314610e875760405162461bcd60e51b8152600401610448906112ed565b6001600160a01b0381166000818152600160208190526040808320805460ff1916909217909155517f0ca65a9f1f88bd7257ac852d1062853358f81cdc56f9634dcbeed6090f8dfb439190a250565b600060208284031215610ee857600080fd5b5035919050565b6000815180845260005b81811015610f1557602081850181015186830182015201610ef9565b506000602082860101526020601f19601f83011685010191505092915050565b88815261010060208201526000610f5061010083018a610eef565b8281036040840152610f62818a610eef565b60608401989098525050608081019490945260a084019290925260c0830152151560e0909101529392505050565b634e487b7160e01b600052604160045260246000fd5b600082601f830112610fb757600080fd5b813567ffffffffffffffff811115610fd157610fd1610f90565b604051601f8201601f19908116603f0116810167ffffffffffffffff8111828210171561100057611000610f90565b60405281815283820160200185101561101857600080fd5b816020850160208301376000918101602001919091529392505050565b60008060006060848603121561104a57600080fd5b833567ffffffffffffffff81111561106157600080fd5b61106d86828701610fa6565b935050602084013567ffffffffffffffff81111561108a57600080fd5b61109686828701610fa6565b93969395505050506040919091013590565b600080604083850312156110bb57600080fd5b50508035926020909101359150565b85815260018060a01b0385166020820152831515604082015282606082015260a0608082015260006110ff60a0830184610eef565b979650505050505050565b80356001600160a01b038116811461112157600080fd5b919050565b60006020828403121561113857600080fd5b6111418261110a565b9392505050565b6000806040838503121561115b57600080fd5b8235915061116b6020840161110a565b90509250929050565b6000602082016020835280845180835260408501915060408160051b86010192506020860160005b8281101561120c57603f1987860301845281518051865260018060a01b036020820151166020870152604081015115156040870152606081015160608701526080810151905060a060808701526111f660a0870182610eef565b955050602093840193919091019060010161119c565b50929695505050505050565b602080825282518282018190526000918401906040840190835b81811015611250578351835260209384019390920191600101611232565b509095945050505050565b60008060006060848603121561127057600080fd5b833592506020840135801515811461128757600080fd5b9150604084013567ffffffffffffffff8111156112a357600080fd5b6112af86828701610fa6565b9150509250925092565b600181811c908216806112cd57607f821691505b602082108103610b1f57634e487b7160e01b600052602260045260246000fd5b60208082526021908201527f4f6e6c792061646d696e2063616e2063616c6c20746869732066756e6374696f6040820152603760f91b606082015260800190565b60208082526017908201527f50726f706f73616c20646f6573206e6f74206578697374000000000000000000604082015260600190565b601f8211156113af57806000526020600020601f840160051c8101602085101561138c5750805b601f840160051c820191505b818110156113ac5760008155600101611398565b50505b505050565b815167ffffffffffffffff8111156113ce576113ce610f90565b6113e2816113dc84546112b9565b84611365565b6020601f82116001811461141657600083156113fe5750848201515b600019600385901b1c1916600184901b1784556113ac565b600084815260208120601f198516915b828110156114465787850151825560209485019460019092019101611426565b50848210156114645786840151600019600387901b60f8161c191681555b50505050600190811b01905550565b634e487b7160e01b600052601160045260246000fd5b808202811582820484141761071557610715611473565b8082018082111561071557610715611473565b6000600182016114c5576114c5611473565b5060010190565b6080815260006114df6080830187610eef565b82810360208401526114f18187610eef565b604084019590955250506060015292915050565b634e487b7160e01b600052603260045260246000fd5b831515815282602082015260606040820152600061153c6060830184610eef565b9594505050505056fea2646970667358221220db3cae1aed50f32a17dad369cef86364fb47d82cd4ab1f3d914eea92d0e90be564736f6c634300081b0033",
  "linkReferences": {},
  "deployedLinkReferences": {}
}